{
  "address": "0xF1e138915eD8cf5b073FA5bd87cF6Db39F549650",
  "abi": [
    {
      "inputs": [
        {
          "internalType": "address",
          "name": "_governor",
          "type": "address"
        },
        {
          "internalType": "address",
          "name": "_keep3r",
          "type": "address"
        },
        {
          "internalType": "address",
          "name": "_bond",
          "type": "address"
        },
        {
          "internalType": "uint256",
          "name": "_minBond",
          "type": "uint256"
        },
        {
          "internalType": "uint256",
          "name": "_earned",
          "type": "uint256"
        },
        {
          "internalType": "uint256",
          "name": "_age",
          "type": "uint256"
        },
        {
          "internalType": "bool",
          "name": "_onlyEOA",
          "type": "bool"
        }
      ],
      "stateMutability": "nonpayable",
      "type": "constructor"
    },
    {
      "inputs": [],
      "name": "KeeperNotEOA",
      "type": "error"
    },
    {
      "inputs": [],
      "name": "KeeperNotRegistered",
      "type": "error"
    },
    {
      "inputs": [],
      "name": "KeeperNotValid",
      "type": "error"
    },
    {
      "inputs": [],
      "name": "NoChangeInPause",
      "type": "error"
    },
    {
      "inputs": [],
      "name": "NoGovernorZeroAddress",
      "type": "error"
    },
    {
      "inputs": [],
      "name": "OnlyGovernor",
      "type": "error"
    },
    {
      "inputs": [],
      "name": "OnlyPendingGovernor",
      "type": "error"
    },
    {
      "inputs": [],
      "name": "StrategyAlreadyAdded",
      "type": "error"
    },
    {
      "inputs": [],
      "name": "StrategyNotExistent",
      "type": "error"
    },
    {
      "inputs": [],
      "name": "StrategyNotWorkable",
      "type": "error"
    },
    {
      "anonymous": false,
      "inputs": [
        {
          "indexed": false,
          "internalType": "address",
          "name": "_bond",
          "type": "address"
        },
        {
          "indexed": false,
          "internalType": "uint256",
          "name": "_minBond",
          "type": "uint256"
        },
        {
          "indexed": false,
          "internalType": "uint256",
          "name": "_earned",
          "type": "uint256"
        },
        {
          "indexed": false,
          "internalType": "uint256",
          "name": "_age",
          "type": "uint256"
        },
        {
          "indexed": false,
          "internalType": "bool",
          "name": "_onlyEOA",
          "type": "bool"
        }
      ],
      "name": "Keep3rRequirementsSet",
      "type": "event"
    },
    {
      "anonymous": false,
      "inputs": [
        {
          "indexed": false,
          "internalType": "address",
          "name": "_keep3r",
          "type": "address"
        }
      ],
      "name": "Keep3rSet",
      "type": "event"
    },
    {
      "anonymous": false,
      "inputs": [
        {
          "indexed": false,
          "internalType": "bool",
          "name": "_paused",
          "type": "bool"
        }
      ],
      "name": "PauseChange",
      "type": "event"
    },
    {
      "anonymous": false,
      "inputs": [
        {
          "indexed": false,
          "internalType": "address",
          "name": "_previousGovernor",
          "type": "address"
        },
        {
          "indexed": false,
          "internalType": "address",
          "name": "_newGovernor",
          "type": "address"
        }
      ],
      "name": "PendingGovernorAccepted",
      "type": "event"
    },
    {
      "anonymous": false,
      "inputs": [
        {
          "indexed": false,
          "internalType": "address",
          "name": "_governor",
          "type": "address"
        },
        {
          "indexed": false,
          "internalType": "address",
          "name": "_pendingGovernor",
          "type": "address"
        }
      ],
      "name": "PendingGovernorSet",
      "type": "event"
    },
    {
      "anonymous": false,
      "inputs": [
        {
          "indexed": false,
          "internalType": "address",
          "name": "_strategy",
          "type": "address"
        }
      ],
      "name": "StrategyAddition",
      "type": "event"
    },
    {
      "anonymous": false,
      "inputs": [
        {
          "indexed": false,
          "internalType": "address",
          "name": "_strategy",
          "type": "address"
        }
      ],
      "name": "StrategyRevokation",
      "type": "event"
    },
    {
      "inputs": [],
      "name": "acceptPendingGovernor",
      "outputs": [],
      "stateMutability": "nonpayable",
      "type": "function"
    },
    {
      "inputs": [
        {
          "internalType": "address",
          "name": "_strategy",
          "type": "address"
        }
      ],
      "name": "addStrategy",
      "outputs": [],
      "stateMutability": "nonpayable",
      "type": "function"
    },
    {
      "inputs": [
        {
          "internalType": "address",
          "name": "_strategy",
          "type": "address"
        }
      ],
      "name": "forceWork",
      "outputs": [],
      "stateMutability": "nonpayable",
      "type": "function"
    },
    {
      "inputs": [],
      "name": "governor",
      "outputs": [
        {
          "internalType": "address",
          "name": "",
          "type": "address"
        }
      ],
      "stateMutability": "view",
      "type": "function"
    },
    {
      "inputs": [],
      "name": "keep3r",
      "outputs": [
        {
          "internalType": "address",
          "name": "",
          "type": "address"
        }
      ],
      "stateMutability": "view",
      "type": "function"
    },
    {
      "inputs": [
        {
          "internalType": "bool",
          "name": "_paused",
          "type": "bool"
        }
      ],
      "name": "pause",
      "outputs": [],
      "stateMutability": "nonpayable",
      "type": "function"
    },
    {
      "inputs": [],
      "name": "paused",
      "outputs": [
        {
          "internalType": "bool",
          "name": "",
          "type": "bool"
        }
      ],
      "stateMutability": "view",
      "type": "function"
    },
    {
      "inputs": [],
      "name": "pendingGovernor",
      "outputs": [
        {
          "internalType": "address",
          "name": "",
          "type": "address"
        }
      ],
      "stateMutability": "view",
      "type": "function"
    },
    {
      "inputs": [],
      "name": "requiredAge",
      "outputs": [
        {
          "internalType": "uint256",
          "name": "",
          "type": "uint256"
        }
      ],
      "stateMutability": "view",
      "type": "function"
    },
    {
      "inputs": [],
      "name": "requiredBond",
      "outputs": [
        {
          "internalType": "address",
          "name": "",
          "type": "address"
        }
      ],
      "stateMutability": "view",
      "type": "function"
    },
    {
      "inputs": [],
      "name": "requiredEOA",
      "outputs": [
        {
          "internalType": "bool",
          "name": "",
          "type": "bool"
        }
      ],
      "stateMutability": "view",
      "type": "function"
    },
    {
      "inputs": [],
      "name": "requiredEarnings",
      "outputs": [
        {
          "internalType": "uint256",
          "name": "",
          "type": "uint256"
        }
      ],
      "stateMutability": "view",
      "type": "function"
    },
    {
      "inputs": [],
      "name": "requiredMinBond",
      "outputs": [
        {
          "internalType": "uint256",
          "name": "",
          "type": "uint256"
        }
      ],
      "stateMutability": "view",
      "type": "function"
    },
    {
      "inputs": [
        {
          "internalType": "address",
          "name": "_strategy",
          "type": "address"
        }
      ],
      "name": "revokeStrategy",
      "outputs": [],
      "stateMutability": "nonpayable",
      "type": "function"
    },
    {
      "inputs": [
        {
          "internalType": "address",
          "name": "_keep3r",
          "type": "address"
        }
      ],
      "name": "setKeep3r",
      "outputs": [],
      "stateMutability": "nonpayable",
      "type": "function"
    },
    {
      "inputs": [
        {
          "internalType": "address",
          "name": "_bond",
          "type": "address"
        },
        {
          "internalType": "uint256",
          "name": "_minBond",
          "type": "uint256"
        },
        {
          "internalType": "uint256",
          "name": "_earned",
          "type": "uint256"
        },
        {
          "internalType": "uint256",
          "name": "_age",
          "type": "uint256"
        },
        {
          "internalType": "bool",
          "name": "_onlyEOA",
          "type": "bool"
        }
      ],
      "name": "setKeep3rRequirements",
      "outputs": [],
      "stateMutability": "nonpayable",
      "type": "function"
    },
    {
      "inputs": [
        {
          "internalType": "address",
          "name": "_pendingGovernor",
          "type": "address"
        }
      ],
      "name": "setPendingGovernor",
      "outputs": [],
      "stateMutability": "nonpayable",
      "type": "function"
    },
    {
      "inputs": [],
      "name": "strategies",
      "outputs": [
        {
          "internalType": "address[]",
          "name": "_list",
          "type": "address[]"
        }
      ],
      "stateMutability": "view",
      "type": "function"
    },
    {
      "inputs": [
        {
          "internalType": "address",
          "name": "_strategy",
          "type": "address"
        }
      ],
      "name": "work",
      "outputs": [],
      "stateMutability": "nonpayable",
      "type": "function"
    },
    {
      "inputs": [],
      "name": "workable",
      "outputs": [
        {
          "internalType": "address",
          "name": "_workableStrategy",
          "type": "address"
        }
      ],
      "stateMutability": "view",
      "type": "function"
    },
    {
      "inputs": [
        {
          "internalType": "address",
          "name": "_strategy",
          "type": "address"
        }
      ],
      "name": "workable",
      "outputs": [
        {
          "internalType": "bool",
          "name": "",
          "type": "bool"
        }
      ],
      "stateMutability": "view",
      "type": "function"
    }
  ],
  "transactionHash": "0x14076923a2eece1f9d8d64fcab327ebe215753e90bb530f7e0efd2e404476913",
  "args": [
    "0xbc0e61Daef021f9abBf73e88a2334670d8d1E4A8",
    "0x1ceb5cb57c4d4e2b2433641b95dd330a33185a44",
    "0x0000000000000000000000000000000000000000",
    0,
    0,
    0,
    true
  ],
  "solcInputHash": "28bc9cba3c4cef986663d7bfdefa05ad",
  "bytecode": "0x608060405234801561001057600080fd5b506040516200125938038062001259833981016040819052610031916100e7565b8585858585858c6001600160a01b03811661005f5760405163079902fb60e01b815260040160405180910390fd5b600080546001600160a01b03199081166001600160a01b039384161790915560028054821698831698909817909755600380549097169516949094179094556004919091556005556006919091556007805460ff19169115159190911790555061016195505050505050565b80516001600160a01b03811681146100e257600080fd5b919050565b600080600080600080600060e0888a03121561010257600080fd5b61010b886100cb565b9650610119602089016100cb565b9550610127604089016100cb565b9450606088015193506080880151925060a0880151915060c0880151801515811461015157600080fd5b8091505092959891949750929550565b6110e880620001716000396000f3fe608060405234801561001057600080fd5b50600436106101375760003560e01c8063634c7bb5116100b8578063bb994d481161007c578063bb994d481461025d578063d9f9027f14610270578063dd7ba42014610285578063e3056a3414610298578063e89352de146102ab578063f235757f146102be57600080fd5b8063634c7bb51461021d5780636b1b6e3e1461023057806373da47c81461023957806380bb2bac146102425780639f4713031461024a57600080fd5b80633ff8bbf6116100ff5780633ff8bbf6146101af5780634822f57f146101c25780634cc18e57146101df5780635c975abb146101f257806362ba54a91461020657600080fd5b806302329a291461013c5780630c340a241461015157806313f6986d14610181578063223e54791461018957806336df7ea51461019c575b600080fd5b61014f61014a366004610f93565b6102d1565b005b600054610164906001600160a01b031681565b6040516001600160a01b0390911681526020015b60405180910390f35b61014f610386565b61014f610197366004610f24565b610423565b61014f6101aa366004610f24565b6104bc565b600354610164906001600160a01b031681565b6007546101cf9060ff1681565b6040519015158152602001610178565b61014f6101ed366004610f24565b6105a2565b6001546101cf90600160a01b900460ff1681565b61020f60055481565b604051908152602001610178565b600254610164906001600160a01b031681565b61020f60065481565b61020f60045481565b61016461061b565b6101cf610258366004610f24565b6106ec565b61014f61026b366004610f24565b61077b565b610278610813565b6040516101789190610fcd565b61014f610293366004610f24565b6108be565b600154610164906001600160a01b031681565b61014f6102b9366004610f3f565b61093f565b61014f6102cc366004610f24565b6109fa565b6000546001600160a01b031633146102fc5760405163070545c960e51b815260040160405180910390fd5b60015460ff600160a01b909104161515811515141561032e576040516337fe120d60e21b815260040160405180910390fd5b60018054821515600160a01b0260ff60a01b199091161790556040517f2ad6db9b13c29d3fb273206d8b8ee98d9e319f7f22d12f50ca30f852dfdc47699061037b90831515815260200190565b60405180910390a150565b6001546001600160a01b031633146103b157604051639ba0305d60e01b815260040160405180910390fd5b600054600154604080516001600160a01b0393841681529290911660208301527f503fa35b81fd757aaf1908331a5373a05d6fc9b6d8504eabdbe5e094c1848ec6910160405180910390a160018054600080546001600160a01b03199081166001600160a01b03841617909155169055565b6000546001600160a01b0316331461044e5760405163070545c960e51b815260040160405180910390fd5b610459600882610aa8565b156104775760405163165e236760e01b815260040160405180910390fd5b610482600882610acd565b506040516001600160a01b03821681527f4d617413a7e0a633d5c8580b3cb34bfb70a8c8fc57115e5369fb91d71c44d7389060200161037b565b336104c681610ae2565b6104cf826106ec565b6104ec576040516398ae0b2160e01b815260040160405180910390fd5b816001600160a01b0316637d7c2a1c6040518163ffffffff1660e01b8152600401600060405180830381600087803b15801561052757600080fd5b505af115801561053b573d6000803e3d6000fd5b50506002546040516317fbade560e21b81526001600160a01b0385811660048301529091169250635feeb7949150602401600060405180830381600087803b15801561058657600080fd5b505af115801561059a573d6000803e3d6000fd5b505050505050565b6000546001600160a01b031633146105cd5760405163070545c960e51b815260040160405180910390fd5b600280546001600160a01b0319166001600160a01b0383169081179091556040519081527f0fec338132ef1fa68cd11242357e5e5e5af67dfd0c957b53ef411bca535817ef9060200161037b565b600154600090600160a01b900460ff16156106365750600090565b60005b6106436008610d17565b8110156106e8576000610657600883610d21565b9050806001600160a01b031663ae2c1d5f6040518163ffffffff1660e01b815260040160206040518083038186803b15801561069257600080fd5b505afa1580156106a6573d6000803e3d6000fd5b505050506040513d601f19601f820116820180604052508101906106ca9190610fb0565b156106d55792915050565b50806106e081611031565b915050610639565b5090565b600154600090600160a01b900460ff161580156107755750816001600160a01b031663ae2c1d5f6040518163ffffffff1660e01b815260040160206040518083038186803b15801561073d57600080fd5b505afa158015610751573d6000803e3d6000fd5b505050506040513d601f19601f820116820180604052508101906107759190610fb0565b92915050565b6000546001600160a01b031633146107a65760405163070545c960e51b815260040160405180910390fd5b6107b1600882610aa8565b6107ce576040516377b101e560e11b815260040160405180910390fd5b6107d9600882610d2d565b506040516001600160a01b03821681527f788d7085c24ddaded9f9a0e7b7e29e1a636de1f2771d0a7669acf02da3b7dfbe9060200161037b565b606061081f6008610d17565b67ffffffffffffffff8111156108375761083761108e565b604051908082528060200260200182016040528015610860578160200160208202803683370190505b50905060005b6108706008610d17565b8110156106e857610882600882610d21565b82828151811061089457610894611078565b6001600160a01b0390921660209283029190910190910152806108b681611031565b915050610866565b6000546001600160a01b031633146108e95760405163070545c960e51b815260040160405180910390fd5b806001600160a01b0316637d7c2a1c6040518163ffffffff1660e01b8152600401600060405180830381600087803b15801561092457600080fd5b505af1158015610938573d6000803e3d6000fd5b5050505050565b6000546001600160a01b0316331461096a5760405163070545c960e51b815260040160405180910390fd5b600380546001600160a01b0319166001600160a01b0387169081179091556004859055600584905560068390556007805460ff1916831515908117909155604080519283526020830187905282018590526060820184905260808201527ec65cfa7a4df705cbfccbeeabefaa0a7015a83bc2b7380c2aba930fa3d66d459060a00160405180910390a15050505050565b6000546001600160a01b03163314610a255760405163070545c960e51b815260040160405180910390fd5b6001600160a01b038116610a4c5760405163079902fb60e01b815260040160405180910390fd5b600180546001600160a01b0319166001600160a01b038381169182179092556000546040805191909316815260208101919091527f6353ec38ac394f8be94bfafcdd3580d356470599059eaeebedc3207e1cc03dec910161037b565b6001600160a01b038116600090815260018301602052604081205415155b9392505050565b6000610ac6836001600160a01b038416610d42565b60075460ff168015610afd57506001600160a01b0381163214155b15610b1b576040516335e0d1ff60e01b815260040160405180910390fd5b600454158015610b2b5750600554155b8015610b375750600654155b15610bdb576002546040516335d2155560e11b81526001600160a01b03838116600483015290911690636ba42aaa90602401602060405180830381600087803b158015610b8357600080fd5b505af1158015610b97573d6000803e3d6000fd5b505050506040513d601f19601f82011682018060405250810190610bbb9190610fb0565b610bd857604051632b55e08160e11b815260040160405180910390fd5b50565b6003546001600160a01b0316610ca75760025460048054600554600654604051630ffaf9ed60e11b81526001600160a01b0387811695820195909552602481019390935260448301919091526064820152911690631ff5f3da90608401602060405180830381600087803b158015610c5257600080fd5b505af1158015610c66573d6000803e3d6000fd5b505050506040513d601f19601f82011682018060405250810190610c8a9190610fb0565b610bd857604051636959565560e11b815260040160405180910390fd5b60025460035460048054600554600654604051637cea367960e11b81526001600160a01b038881169582019590955294841660248601526044850192909252606484015260848301529091169063f9d46cf29060a401602060405180830381600087803b158015610c5257600080fd5b6000610775825490565b6000610ac68383610d91565b6000610ac6836001600160a01b038416610e1b565b6000818152600183016020526040812054610d8957508154600181810184556000848152602080822090930184905584548482528286019093526040902091909155610775565b506000610775565b81546000908210610df35760405162461bcd60e51b815260206004820152602260248201527f456e756d657261626c655365743a20696e646578206f7574206f6620626f756e604482015261647360f01b606482015260840160405180910390fd5b826000018281548110610e0857610e08611078565b9060005260206000200154905092915050565b60008181526001830160205260408120548015610efe576000610e3f60018361101a565b8554909150600090610e539060019061101a565b90506000866000018281548110610e6c57610e6c611078565b9060005260206000200154905080876000018481548110610e8f57610e8f611078565b600091825260208083209091019290925582815260018901909152604090208490558654879080610ec257610ec2611062565b60019003818190600052602060002001600090559055866001016000878152602001908152602001600020600090556001945050505050610775565b6000915050610775565b80356001600160a01b0381168114610f1f57600080fd5b919050565b600060208284031215610f3657600080fd5b610ac682610f08565b600080600080600060a08688031215610f5757600080fd5b610f6086610f08565b94506020860135935060408601359250606086013591506080860135610f85816110a4565b809150509295509295909350565b600060208284031215610fa557600080fd5b8135610ac6816110a4565b600060208284031215610fc257600080fd5b8151610ac6816110a4565b6020808252825182820181905260009190848201906040850190845b8181101561100e5783516001600160a01b031683529284019291840191600101610fe9565b50909695505050505050565b60008282101561102c5761102c61104c565b500390565b60006000198214156110455761104561104c565b5060010190565b634e487b7160e01b600052601160045260246000fd5b634e487b7160e01b600052603160045260246000fd5b634e487b7160e01b600052603260045260246000fd5b634e487b7160e01b600052604160045260246000fd5b8015158114610bd857600080fdfea2646970667358221220ea2830e2462b956874a5fb898ad315059957960a67b498230eb1210721ba2dcb64736f6c63430008060033",
  "devdoc": {
    "kind": "dev",
    "methods": {},
    "version": 1
  },
  "userdoc": {
    "kind": "user",
    "methods": {},
    "version": 1
  },
  "storageLayout": {
    "storage": [
      {
        "astId": 873,
        "contract": "solidity/contracts/AlphaJob.sol:AlphaJob",
        "label": "governor",
        "offset": 0,
        "slot": "0",
        "type": "t_address"
      },
      {
        "astId": 876,
        "contract": "solidity/contracts/AlphaJob.sol:AlphaJob",
        "label": "pendingGovernor",
        "offset": 0,
        "slot": "1",
        "type": "t_address"
      },
      {
        "astId": 1209,
        "contract": "solidity/contracts/AlphaJob.sol:AlphaJob",
        "label": "paused",
        "offset": 20,
        "slot": "1",
        "type": "t_bool"
      },
      {
        "astId": 984,
        "contract": "solidity/contracts/AlphaJob.sol:AlphaJob",
        "label": "keep3r",
        "offset": 0,
        "slot": "2",
        "type": "t_address"
      },
      {
        "astId": 987,
        "contract": "solidity/contracts/AlphaJob.sol:AlphaJob",
        "label": "requiredBond",
        "offset": 0,
        "slot": "3",
        "type": "t_address"
      },
      {
        "astId": 990,
        "contract": "solidity/contracts/AlphaJob.sol:AlphaJob",
        "label": "requiredMinBond",
        "offset": 0,
        "slot": "4",
        "type": "t_uint256"
      },
      {
        "astId": 993,
        "contract": "solidity/contracts/AlphaJob.sol:AlphaJob",
        "label": "requiredEarnings",
        "offset": 0,
        "slot": "5",
        "type": "t_uint256"
      },
      {
        "astId": 996,
        "contract": "solidity/contracts/AlphaJob.sol:AlphaJob",
        "label": "requiredAge",
        "offset": 0,
        "slot": "6",
        "type": "t_uint256"
      },
      {
        "astId": 999,
        "contract": "solidity/contracts/AlphaJob.sol:AlphaJob",
        "label": "requiredEOA",
        "offset": 0,
        "slot": "7",
        "type": "t_bool"
      },
      {
        "astId": 638,
        "contract": "solidity/contracts/AlphaJob.sol:AlphaJob",
        "label": "_strategies",
        "offset": 0,
        "slot": "8",
        "type": "t_struct(AddressSet)388_storage"
      }
    ],
    "types": {
      "t_address": {
        "encoding": "inplace",
        "label": "address",
        "numberOfBytes": "20"
      },
      "t_array(t_bytes32)dyn_storage": {
        "base": "t_bytes32",
        "encoding": "dynamic_array",
        "label": "bytes32[]",
        "numberOfBytes": "32"
      },
      "t_bool": {
        "encoding": "inplace",
        "label": "bool",
        "numberOfBytes": "1"
      },
      "t_bytes32": {
        "encoding": "inplace",
        "label": "bytes32",
        "numberOfBytes": "32"
      },
      "t_mapping(t_bytes32,t_uint256)": {
        "encoding": "mapping",
        "key": "t_bytes32",
        "label": "mapping(bytes32 => uint256)",
        "numberOfBytes": "32",
        "value": "t_uint256"
      },
      "t_struct(AddressSet)388_storage": {
        "encoding": "inplace",
        "label": "struct EnumerableSet.AddressSet",
        "members": [
          {
            "astId": 387,
            "contract": "solidity/contracts/AlphaJob.sol:AlphaJob",
            "label": "_inner",
            "offset": 0,
            "slot": "0",
            "type": "t_struct(Set)113_storage"
          }
        ],
        "numberOfBytes": "64"
      },
      "t_struct(Set)113_storage": {
        "encoding": "inplace",
        "label": "struct EnumerableSet.Set",
        "members": [
          {
            "astId": 108,
            "contract": "solidity/contracts/AlphaJob.sol:AlphaJob",
            "label": "_values",
            "offset": 0,
            "slot": "0",
            "type": "t_array(t_bytes32)dyn_storage"
          },
          {
            "astId": 112,
            "contract": "solidity/contracts/AlphaJob.sol:AlphaJob",
            "label": "_indexes",
            "offset": 0,
            "slot": "1",
            "type": "t_mapping(t_bytes32,t_uint256)"
          }
        ],
        "numberOfBytes": "64"
      },
      "t_uint256": {
        "encoding": "inplace",
        "label": "uint256",
        "numberOfBytes": "32"
      }
    }
  }
}